:020000040800F2
:10000000000001200509000881080008890800088F
:100010009108000899080008A108000800000000E5
:10002000000000000000000000000000A908000817
:10003000B708000800000000C5080008D308000841
:100040005509000855090008550900085509000818
:100050005509000855090008550900085509000808
:1000600055090008550900085509000855090008F8
:1000700055090008550900085509000855090008E8
:1000800055090008550900085509000855090008D8
:1000900055090008550900085509000855090008C8
:1000A00055090008550900085509000855090008B8
:1000B00055090008550900085509000855090008A8
:1000C0005509000855090008550900085509000898
:1000D0005509000855090008550900085509000888
:1000E0005509000855090008550900085509000878
:1000F0005509000855090008550900085509000868
:100100005509000800000000000000005509000823
:100110005509000855090008550900085509000847
:100120005509000855090008550900085509000837
:1001300055090008550900080000000000000000F3
:10014000550900085509000855090008000000007D
:10015000000000000000000000000000000000009F
:1001600055090008550900085509000855090008F7
:1001700055090008550900085509000855090008E7
:1001800055090008550900080000000000000000A3
:040190005509000805
:1001940010B5054C237833B9044B13B10448AFF3BD
:1001A40000800123237010BD0C000020000000001B
:1001B400C039000808B5034B1BB103490348AFF32A
:1001C400008008BD0000000010000020C0390008B5
:1001D40080B500AF00F0BEFB00F038F800F006F97F
:1001E40000F0D4F800F092F800F012FA0021002098
:1001F40000F05EFA134800F046FA0121012000F0F5
:1002040057FA114800F03FFA0021002000F050FA9C
:100214000C4800F038FA4FF47A7000F001FC012029
:1002240000F04AF90121012000F042FA064800F0EA
:100234002AFA4FF47A7000F0F3FB012000F03CF945
:1002440000BFE1E7D8390008E439000880B5A6B05A
:1002540000AF07F1700328220021184603F081FB48
:1002640007F15C0300221A605A609A60DA601A612E
:100274003B1D58220021184603F073FB02233B6701
:100284000123FB671023C7F880300223C7F88830A6
:100294004FF40043C7F88C304FF4E013C7F89030A4
:1002A4000023C7F8943007F17003184601F0CAFA26
:1002B4000346002B01D000F01FFA0F23FB65022335
:1002C4003B6600237B664FF48063BB660023FB66BA
:1002D40007F15C030221184602F0D8FA0346002B0A
:1002E40001D000F009FA42237B6000233B61002324
:1002F4007B623B1D184602F0DBFC0346002B01D059
:1003040000F0FAF900BF9837BD4680BD80B500AF54
:100314001B4B1C4A1A601A4B1B4A5A60184B00228A
:100324009A60174B0122DA60154B00221A61144BB4
:1003340000225A61124B00229A61114B0022DA61A9
:100344000F4B00221A620E4800F016FE0346002BE3
:1003540001D000F0D1F90021094801F0DBF903468E
:10036400002B01D000F0C8F90021054801F01DFA66
:100374000346002B01D000F0BFF900BF80BD00BFD1
:1003840028000020005800402B1D200080B500AF3D
:10039400144B154A1A60134B4FF4E1325A60114B57
:1003A40000229A600F4B0022DA600E4B00221A6181
:1003B4000C4B0C225A610B4B00229A61094B002210
:1003C400DA61084B00221A62064B00225A62054881
:1003D40002F08AFE0346002B01D000F08DF900BF25
:1003E40080BD00BF7C0000200044004080B58AB07E
:1003F40000AF07F1140300221A605A609A60DA60B1
:100404001A612B4B5B692A4A43F400235361284B3E
:100414005B6903F400233B613B69254B5B69244A18
:1004240043F480035361224B5B6903F48003FB6054
:10043400FB681F4B5B691E4A43F4003353611C4B3A
:100444005B6903F40033BB60BB68194B5B69184AF2
:1004540043F480235361164B5B6903F480237B6070
:100464007B68002220214FF0904000F06DFD4FF496
:1004740000537B614FF40413BB610023FB6107F15C
:10048400140319460B4800F0D5FB20237B6101239C
:10049400BB610023FB6100233B6207F1140319468F
:1004A4004FF0904000F0C6FB00BF2837BD4680BD2A
:1004B400001002400008004880B586B002AF034631
:1004C400FB71FB7923F00F03FB73FB791B01BB73F7
:1004D400FB7B43F00C03DBB23B72FB7B43F0080372
:1004E400DBB27B72BB7B43F00C03DBB2BB72BB7B26
:1004F40043F00803DBB2FB7207F1080264230093A4
:1005040001234E21164800F0D3FD322000F088FA72
:1005140007F108026423009301234E21104800F0E0
:10052400C7FD322000F07CFA07F10802642300932F
:1005340001234E210A4800F0BBFD322000F070FA7E
:1005440007F108026423009301234E21044800F0BC
:10055400AFFD322000F064FA00BF1037BD4680BD05
:100564002800002080B586B002AF0346FB71FB79FA
:1005740023F00F03FB73FB791B01BB73FB7B43F07D
:100584000D03DBB23B72FB7B43F00903DBB27B72EE
:10059400BB7B43F00D03DBB2BB72BB7B43F00903AF
:1005A400DBB2FB7207F108026423009301234E219E
:1005B400164800F07DFD322000F032FA07F10802FF
:1005C4006423009301234E21104800F071FD322072
:1005D40000F026FA07F108026423009301234E2158
:1005E4000A4800F065FD322000F01AFA07F108020B
:1005F4006423009301234E21044800F059FD322066
:1006040000F00EFA00BF1037BD4680BD2800002060
:1006140080B500AF4FF4FA7000F002FA3020FFF713
:100624004BFF322000F0FCF93020FFF745FF322069
:1006340000F0F6F93020FFF73FFF322000F0F0F928
:100644002020FFF739FF322000F0EAF92820FFF7D5
:1006540033FF322000F0E4F90820FFF72DFF3220A9
:1006640000F0DEF90120FFF727FF322000F0D8F96F
:100674000620FFF721FF322000F0D2F90C20FFF70B
:100684001BFF00BF80BD80B582B000AF786006E07C
:100694007B685A1C7A601B781846FFF763FF7B68F7
:1006A4001B78002BF4D100BF00BF0837BD4680BDC6
:1006B40080B582B000AF786039607B68002B03D0CE
:1006C4007B68012B05D009E07B6843F080037B60E5
:1006D40004E07B6843F0C0037B6000BF7B68DBB24F
:1006E4001846FFF7E9FE3B68DBB21846FFF7E4FE65
:1006F40000BF0837BD4680BD80B400AF72B600BFEE
:1007040000BFFDE780B582B000AF0F4B9B690E4A76
:1007140043F0010393610C4B9B6903F001037B607D
:100724007B68094BDB69084A43F08053D361064B6D
:10073400DB6903F080533B603B68072000F046FA16
:1007440000BF0837BD4680BD0010024080B58AB0A6
:1007540000AF786007F1140300221A605A609A60AF
:10076400DA601A617B681B68184A934229D1184BD6
:100774005B69174A43F400335361154B5B6903F417
:1007840000333B613B694FF4C0637B611223BB615F
:100794000023FB6103233B6204237B6207F1140300
:1007A40019464FF0904000F045FA094BDB69084ABE
:1007B40043F48003D361064BDB6903F48003FB60DD
:1007C400FB6800BF2837BD4680BD00BF005800400D
:1007D4000010024080B58AB000AF786007F11403BE
:1007E40000221A605A609A60DA601A617B681B689A
:1007F400204A934239D1204BDB691F4A43F400332A
:10080400D3611D4BDB6903F400333B613B691A4B35
:100814005B69194A43F400335361174B5B6903F472
:100824000033FB60FB6804237B610223BB6100236C
:10083400FB6103233B6207237B6207F11403194620
:100844004FF0904000F0F6F908237B610223BB616E
:100854000023FB6100233B6207237B6207F114033F
:1008640019464FF0904000F0E5F900BF2837BD4627
:1008740080BD00BF004400400010024080B400AFBF
:1008840000BFFDE780B400AF00BFFDE780B400AF58
:1008940000BFFDE780B400AF00BFFDE780B400AF48
:1008A40000BFFDE780B400AF00BFBD465DF8047B28
:1008B400704780B400AF00BFBD465DF8047B70474D
:1008C40080B400AF00BFBD465DF8047B704780B5BF
:1008D40000AF00F085F800BF80BD000080B400AF19
:1008E400064BD3F88830054A43F47003C2F88830C5
:1008F40000BFBD465DF8047B704700BF00ED00E01B
:10090400DFF834D0FFF7EAFF0C480D490D4A002305
:1009140002E0D458C4500433C4188C42F9D30A4AB0
:100924000A4C002301E013600432A242FBD303F01B
:1009340021F8FFF74DFCFEE7000001200000002035
:100944000C000020303A00080C00002008010020B0
:10095400FEE7000080B500AF084B1B68074A43F070
:1009640010031360032000F031F9002000F008F8B0
:10097400FFF7C8FE0023184680BD00BF00200240D8
:1009840080B582B000AF7860124B1A68124B1B78A6
:1009940019464FF47A73B3FBF1F3B2FBF3F3184641
:1009A40000F03BF90346002B01D001230EE07B68E5
:1009B4000F2B0AD8002279684FF0FF3000F011F9AC
:1009C400064A7B681360002300E0012318460837B9
:1009D400BD4680BD00000020080000200400002067
:1009E40080B400AF064B1B781A46064B1B681344B1
:1009F400044A136000BFBD465DF8047B704700BF26
:100A0400080000200401002080B400AF034B1B68E1
:100A14001846BD465DF8047B704700BF0401002002
:100A240080B584B000AF7860FFF7EEFFB8607B68F4
:100A3400FB60FB68B3F1FF3F05D00A4B1B781A46F5
:100A4400FB681344FB6000BFFFF7DEFF0246BB6890
:100A5400D31AFA689A42F7D800BF00BF1037BD46D0
:100A640080BD00BF0800002080B485B000AF78606E
:100A74007B6803F00703FB600C4BDB68BB60BA6860
:100A84004FF6FF031340BB60FB681A02BB681343B5
:100A940043F0BF6343F40033BB60044ABB68D360D4
:100AA40000BF1437BD465DF8047B704700ED00E0DD
:100AB40080B400AF044BDB681B0A03F0070318463D
:100AC400BD465DF8047B704700ED00E080B483B060
:100AD40000AF03463960FB7197F90730002B0ADB3E
:100AE4003B68DAB20C4997F907301201D2B20B44D1
:100AF40083F800230AE03B68DAB20849FB7903F083
:100B04000F03043B1201D2B20B441A7600BF0C3718
:100B1400BD465DF8047B704700E100E000ED00E0B5
:100B240080B489B000AFF860B9607A60FB6803F004
:100B34000703FB61FB69C3F10703042B28BF0423EC
:100B4400BB61FB690433062B02D9FB69033B00E05C
:100B540000237B614FF0FF32BB6902FA03F3DA43EF
:100B6400BB681A407B699A404FF0FF317B6901FAF8
:100B740003F3D9437B680B40134318462437BD461F
:100B84005DF8047B7047000080B582B000AF7860E8
:100B94007B68013BB3F1807F01D301230FE00A4A54
:100BA4007B68013B53600F214FF0FF30FFF78EFF4E
:100BB400054B00229A60044B07221A600023184652
:100BC4000837BD4680BD00BF10E000E080B582B0AC
:100BD40000AF78607868FFF747FF00BF0837BD466D
:100BE40080BD80B586B000AF0346B9607A60FB7300
:100BF40000237B61FFF75CFF78617A68B9687869E4
:100C0400FFF78EFF024697F90F3011461846FFF79B
:100C14005DFF00BF1837BD4680BD80B582B000AF10
:100C240078607868FFF7B0FF034618460837BD467A
:100C340080BD000080B487B000AF786039600023C5
:100C44007B6160E13B681A6801217B6901FA03F367
:100C54001340FB60FB68002B00F052813B685B682B
:100C640003F00303012B05D03B685B6803F0030327
:100C7400022B30D17B689B683B617B695B0003225C
:100C840002FA03F3DB433A6913403B613B68DA68D9
:100C94007B695B0002FA03F33A6913433B617B68A7
:100CA4003A699A607B685B683B6101227B6902FA5E
:100CB40003F3DB433A6913403B613B685B681B0900
:100CC40003F001027B6902FA03F33A6913433B61BF
:100CD4007B683A695A603B685B6803F00303032B43
:100CE40017D07B68DB683B617B695B00032202FAF7
:100CF40003F3DB433A6913403B613B689A687B69C1
:100D04005B0002FA03F33A6913433B617B683A6977
:100D1400DA603B685B6803F00303022B23D17B6931
:100D2400DA087B68083253F822303B617B6903F0B0
:100D340007039B000F2202FA03F3DB433A691340D3
:100D44003B613B681A697B6903F007039B0002FA65
:100D540003F33A6913433B617B69DA087B68083221
:100D6400396943F822107B681B683B617B695B002F
:100D7400032202FA03F3DB433A6913403B613B6805
:100D84005B6803F003027B695B0002FA03F33A69D0
:100D940013433B617B683A691A603B685B6803F400
:100DA4004033002B00F0AC805E4B9B695D4A43F0FE
:100DB400010393615B4B9B6903F00103BB60BB6858
:100DC400594A7B699B08023352F823303B617B69A3
:100DD40003F003039B000F2202FA03F3DB433A6997
:100DE40013403B617B68B3F1904F25D07B684F4A39
:100DF40093421FD07B684E4A934219D07B684D4A78
:100E0400934213D07B684C4A93420DD07B684B4A83
:100E1400934207D07B684A4A934201D106230CE0EF
:100E240007230AE0052308E0042306E0032304E083
:100E3400022302E0012300E000237A6902F00302A6
:100E4400920093403A6913433B6137497B699B089D
:100E540002333A6941F823203A4B9B683B61FB68B3
:100E6400DB433A6913403B613B685B6803F48013DE
:100E7400002B03D03A69FB6813433B61314A3B6959
:100E84009360304BDB683B61FB68DB433A6913409A
:100E94003B613B685B6803F40013002B03D03A69A1
:100EA400FB6813433B61274A3B69D360254B5B686E
:100EB4003B61FB68DB433A6913403B613B685B6819
:100EC40003F40033002B03D03A69FB6813433B61FE
:100ED4001C4A3B6953601B4B1B683B61FB68DB434B
:100EE4003A6913403B613B685B6803F48033002B31
:100EF40003D03A69FB6813433B61124A3B691360B0
:100F04007B6901337B613B681A687B6922FA03F3CE
:100F1400002B7FF497AE00BF00BF1C37BD465DF8C1
:100F2400047B7047001002400000014000040048A8
:100F340000080048000C0048001000480014004855
:100F4400001800480004014080B483B000AF78600A
:100F54000B467B8013467B707B78002B03D07A880A
:100F64007B689A6102E07A887B689A6200BF0C37DA
:100F7400BD465DF8047B704780B582B000AF7860F1
:100F84007B68002B01D101238DE07B6893F841300D
:100F9400DBB2002B06D17B68002283F840207868FE
:100FA400FFF7D4FB7B68242283F841207B681B680D
:100FB4001A687B681B6822F001021A607B685A6811
:100FC4007B681B6822F070621A617B681B689A68F0
:100FD4007B681B6822F400429A607B68DB68012B03
:100FE40007D17B689A687B681B6842F400429A6068
:100FF40006E07B689A687B681B6842F404429A6046
:101004007B68DB68022B08D17B681B685A687B68A5
:101014001B6842F400625A6007E07B681B685A68E8
:101024007B681B6822F400625A607B681B685B68FB
:101034007A68126843F0007343F4004353607B689A
:101044001B68DA687B681B6822F40042DA607B68FC
:101054001A697B685B6942EA03017B689B691A022F
:101064007B681B680A43DA607B68D9697B681A6A03
:101074007B681B680A431A607B681B681A687B6874
:101084001B6842F001021A607B6800225A647B6884
:10109400202283F841207B6800221A637B680022A7
:1010A40083F84220002318460837BD4680BD00005F
:1010B40080B588B002AFF8607A601A460B467B812F
:1010C40013463B81FB6893F84130DBB2202B40F0A0
:1010D400FD80FB6893F84030012B01D10223F6E038
:1010E400FB68012283F84020FFF78EFC38613B69DE
:1010F4000093192301224FF40041F86800F014F919
:101104000346002B01D00123E1E0FB68212283F890
:101114004120FB68102283F84220FB6800225A64B5
:10112400FB687A685A62FB683A895A85FB68002230
:101134005A63FB685B8D9BB2FF2B06D9FB68FF22C9
:101144001A854FF080737B6107E0FB685B8D9AB270
:10115400FB681A854FF000737B61FB681B8D002BC5
:1011640024D0FB685B6A1A78FB681B689A62FB6888
:101174005B6A5A1CFB685A62FB685B8D9BB2013B3D
:101184009AB2FB685A85FB681B8D013B9AB2FB68D7
:101194001A85FB681B8DDBB20133DAB279894E4BB9
:1011A40000937B69F86800F083FA66E0FB681B8DA6
:1011B400DAB27989484B00937B69F86800F078FAD1
:1011C4005BE03A69396AF86800F007F90346002BD6
:1011D40001D001237BE0FB685B6A1A78FB681B681B
:1011E4009A62FB685B6A5A1CFB685A62FB685B8DF7
:1011F4009BB2013B9AB2FB685A85FB681B8D013B8D
:101204009AB2FB681A85FB685B8D9BB2002B34D0C5
:10121400FB681B8D002B30D13B6900933B6A002295
:101224008021F86800F080F80346002B01D00123E8
:101234004DE0FB685B8D9BB2FF2B0ED9FB68FF2250
:101244001A85FB681B8DDAB27989002300934FF06D
:101254008073F86800F02CFA0FE0FB685B8D9AB29B
:10126400FB681A85FB681B8DDAB279890023009329
:101274004FF00073F86800F01BFAFB685B8D9BB2BB
:10128400002B9ED13A69396AF86800F0EDF80346FC
:10129400002B01D001231AE0FB681B682022DA61CD
:1012A400FB681B685968FB681A680C4B0B40536059
:1012B400FB68202283F84120FB68002283F8422047
:1012C400FB68002283F84020002300E00223184634
:1012D4001837BD4680BD00BF0020008000E800FE36
:1012E40080B483B000AF78607B681B689B6903F0AF
:1012F4000203022B03D17B681B6800229A627B687D
:101304001B689B6903F00103012B07D07B681B68F2
:101314009A697B681B6842F001029A6100BF0C372E
:10132400BD465DF8047B704780B584B000AFF860BB
:10133400B9603B601346FB713BE0BA693968F868F1
:1013440000F0D6F80346002B01D0012341E03B68AE
:10135400B3F1FF3F2DD0FFF757FB0246BB69D31A09
:101364003A689A4202D33B68002B22D1FB681B687F
:101374009A69BB681340BA689A420CBF01230023E0
:10138400DBB21A46FB799A4213D1FB685B6C43F0DB
:101394002002FB685A64FB68202283F84120FB6822
:1013A400002283F84220FB68002283F840200123B6
:1013B4000FE0FB681B689A69BB681340BA689A42DD
:1013C4000CBF01230023DBB21A46FB799A42B4D046
:1013D400002318461037BD4680BD80B584B000AFE9
:1013E400F860B9607A6033E07A68B968F86800F048
:1013F4007FF80346002B01D0012331E0BB68B3F131
:10140400FF3F25D0FFF700FB02467B68D31ABA687A
:101414009A4202D3BB68002B1AD1FB681B689B69F4
:1014240003F00203022B13D0FB685B6C43F0200231
:10143400FB685A64FB68202283F84120FB68002281
:1014440083F84220FB68002283F84020012307E050
:10145400FB681B689B6903F00203022BC4D10023C1
:1014640018461037BD4680BD80B584B000AFF86023
:10147400B9607A602FE07A68B968F86800F038F8E3
:101484000346002B01D001232DE0FFF7BDFA0246ED
:101494007B68D31ABA689A4202D3BB68002B1AD16C
:1014A400FB681B689B6903F02003202B13D0FB68A7
:1014B4005B6C43F02002FB685A64FB68202283F8CB
:1014C4004120FB68002283F84220FB68002283F855
:1014D4004020012307E0FB681B689B6903F020039D
:1014E400202BC8D1002318461037BD4680BD00000C
:1014F40080B58AB000AFF860B9607A60002387F8DD
:101504002730FB681B689B69BB6100233B627B68D7
:10151400FB61BB6903F01003002B68D0FB681B68F8
:101524001022DA6149E0BB68B3F1FF3F45D0FFF711
:101534006BFA0246FB69D31ABA689A4202D3BB68B3
:10154400002B3AD1FB681B685B6803F480437B6122
:10155400FB6893F84230FB74FB681B689B6903F4D7
:101564000043B3F5004F21D17B69B3F5804F1DD003
:10157400FB7C202B1AD0FB681B685A68FB681B682D
:1015840042F480425A60FFF73FFAF8610EE0FFF739
:101594003BFA0246FB69D31A192B07D93B6A43F07D
:1015A40020033B62012387F8273006E0FB681B68B1
:1015B4009B6903F02003202BE9D1FB681B689B691E
:1015C40003F02003202B03D097F82730002BAAD058
:1015D40097F82730002B03D1FB681B682022DA61BF
:1015E4003B6A43F004033B62012387F82730FB681E
:1015F4001B689B69BB61BB6903F48073002B0BD030
:101604003B6A43F001033B62FB681B684FF4807242
:10161400DA61012387F82730BB6903F48063002B68
:101624000BD03B6A43F008033B62FB681B684FF432
:101634008062DA61012387F82730BB6903F4007301
:10164400002B0BD03B6A43F002033B62FB681B6830
:101654004FF40072DA61012387F8273097F82730B6
:10166400002B1CD0F868FFF73BFEFB681B68596829
:10167400FB681A680D4B0B405360FB685A6C3B6A5D
:101684001A43FB685A64FB68202283F84120FB68F4
:10169400002283F84220FB68002283F8402097F858
:1016A400273018462837BD4680BD00BF00E800FE3D
:1016B40080B487B000AFF8607B600B467B81134633
:1016C4007B727B89C3F309027B7A1B0403F47F03D7
:1016D4001A437B681A433B6A134323F000437B613C
:1016E400FB681B685A683B6A5B0D03F48061084B16
:1016F4000B43DB4302EA0301FB681B687A690A4374
:101704005A6000BF1C37BD465DF8047B704700BFBC
:10171400FF63FF0380B483B000AF786039607B68F7
:1017240093F84130DBB2202B38D17B6893F84030FA
:10173400012B01D1022332E07B68012283F840208F
:101744007B68242283F841207B681B681A687B68C5
:101754001B6822F001021A607B681B681A687B68A8
:101764001B6822F480521A607B681B6819687B68C6
:101774001B683A680A431A607B681B681A687B68AE
:101784001B6842F001021A607B68202283F8412022
:101794007B68002283F84020002300E002231846DF
:1017A4000C37BD465DF8047B704780B485B000AF4C
:1017B400786039607B6893F84130DBB2202B39D1F3
:1017C4007B6893F84030012B01D1022333E07B681E
:1017D400012283F840207B68242283F841207B681F
:1017E4001B681A687B681B6822F001021A607B6818
:1017F4001B681B68FB60FB6823F47063FB603B6839
:101804001B02FA681343FB607B681B68FA681A6062
:101814007B681B681A687B681B6842F001021A60C7
:101824007B68202283F841207B68002283F84020D3
:10183400002300E0022318461437BD465DF8047BFC
:101844007047000080B5ADF5027D00AF07F5027367
:10185400A3F50173186007F50273A3F501731B6800
:10186400002B02D1012301F00AB807F50273A3F596
:1018740001731B681B6803F00103002B00F06181F6
:10188400AE4B5B6803F00C03042B0CD0AB4B5B68D2
:1018940003F00C03082B57D1A84B5B6803F4C03347
:1018A400B3F5803F50D14FF40033C7F8F431D7F883
:1018B400F43193FAA3F3C7F8F031D7F8F031B3FA5F
:1018C40083F3DBB23F2B02D89C4B1B6815E04FF42B
:1018D4000033C7F8EC31D7F8EC3193FAA3F3C7F827
:1018E400E8314FF40033C7F8E431D7F8E43193FA20
:1018F400A3F3C7F8E031914B5B6A4FF40032C7F8A9
:10190400DC21D7F8DC2192FAA2F2C7F8D821D7F863
:10191400D821B2FA82F2D2B242F02002D2B202F05C
:101924001F02012101FA02F21340002B00F008818A
:1019340007F50273A3F501731B685B68002B40F085
:10194400FF80012300F09BBF07F50273A3F5017329
:101954001B685B68B3F5803F06D1784B1B68774AF8
:1019640043F48033136036E007F50273A3F5017383
:101974001B685B68002B0CD1704B1B686F4A23F407
:10198400803313606D4B1B686C4A23F4802313600F
:1019940021E007F50273A3F501731B685B68B3F5D7
:1019A400A02F0CD1654B1B68644A43F48023136059
:1019B400624B1B68614A43F4803313600BE05F4B56
:1019C4001B685E4A23F4803313605C4B1B685B4ADC
:1019D40023F48023136007F50273A3F501731B68D6
:1019E4005B68002B54D0FFF70FF8C7F800020AE039
:1019F400FFF70AF80246D7F80032D31A642B02D94B
:101A0400032300F03CBF4FF40033C7F8D431D7F8B8
:101A1400D43193FAA3F3C7F8D031D7F8D031B3FA5D
:101A240083F3DBB23F2B02D8444B1B6815E04FF421
:101A34000033C7F8CC31D7F8CC3193FAA3F3C7F805
:101A4400C8314FF40033C7F8C431D7F8C43193FA1E
:101A5400A3F3C7F8C031394B5B6A4FF40032C7F8BF
:101A6400BC21D7F8BC2192FAA2F2C7F8B821D7F862
:101A7400B821B2FA82F2D2B242F02002D2B202F01B
:101A84001F02012101FA02F21340002BB0D058E0EA
:101A9400FEF7BAFFC7F800020AE0FEF7B5FF0246F8
:101AA400D7F80032D31A642B02D9032300F0E7BE1F
:101AB4004FF40033C7F8B431D7F8B43193FAA3F331
:101AC400C7F8B031D7F8B031B3FA83F3DBB23F2BA8
:101AD40002D81A4B1B6815E04FF40033C7F8AC3139
:101AE400D7F8AC3193FAA3F3C7F8A8314FF4003315
:101AF400C7F8A431D7F8A43193FAA3F3C7F8A031F7
:101B04000E4B5B6A4FF40032C7F89C21D7F89C2136
:101B140092FAA2F2C7F89821D7F89821B2FA82F281
:101B2400D2B242F02002D2B202F01F02012101FA25
:101B340002F21340002BB0D103E000BF00100240BA
:101B440000BF07F50273A3F501731B681B6803F05C
:101B54000203002B00F06D81CD4B5B6803F00C0396
:101B6400002B0CD0CA4B5B6803F00C03082B6ED11E
:101B7400C74B5B6803F4C033B3F5004F67D102234E
:101B8400C7F89431D7F8943193FAA3F3C7F8903196
:101B9400D7F89031B3FA83F3DBB23F2B02D8BC4BB6
:101BA4001B6813E00223C7F88C31D7F88C3193FA01
:101BB400A3F3C7F888310223C7F88431D7F88431F6
:101BC40093FAA3F3C7F88031B14B5B6A0222C7F8DA
:101BD4007C21D7F87C2192FAA2F2C7F87821D7F8B1
:101BE4007821B2FA82F2D2B242F02002D2B202F0EA
:101BF4001F02012101FA02F21340002B0AD007F55B
:101C04000273A3F501731B68DB68012B02D0012367
:101C140000F035BE9E4B1B6823F0F80207F50273F3
:101C2400A3F501731B681B69F821C7F87411D7F871
:101C3400741191FAA1F1C7F87011D7F87011B1FAC3
:101C440081F1C9B28B40924913430B60F1E007F56F
:101C54000273A3F501731B68DB68002B00F083801B
:101C64000123C7F86C31D7F86C3193FAA3F3C7F8A2
:101C74006831D7F86831B3FA83F3DBB203F18453E4
:101C840003F584139B001A4601231360FEF7BCFE80
:101C9400C7F800020AE0FEF7B7FE0246D7F80032A2
:101CA400D31A022B02D9032300F0E9BD0223C7F89B
:101CB4006431D7F8643193FAA3F3C7F86031D7F8E5
:101CC4006031B3FA83F3DBB23F2B02D8704B1B684D
:101CD40013E00223C7F85C31D7F85C3193FAA3F31D
:101CE400C7F858310223C7F85431D7F8543193FA5E
:101CF400A3F3C7F85031664B5B6A0222C7F84C2144
:101D0400D7F84C2192FAA2F2C7F84821D7F8482113
:101D1400B2FA82F2D2B242F02002D2B202F01F0230
:101D2400012101FA02F21340002BB4D0584B1B6876
:101D340023F0F80207F50273A3F501731B681B690E
:101D4400F821C7F84411D7F8441191FAA1F1C7F862
:101D54004011D7F84011B1FA81F1C9B28B404C4916
:101D640013430B6065E00123C7F83C31D7F83C31DD
:101D740093FAA3F3C7F83831D7F83831B3FA83F3B9
:101D8400DBB203F1845303F584139B001A4600234A
:101D94001360FEF739FEC7F800020AE0FEF734FECE
:101DA4000246D7F80032D31A022B02D9032300F0DB
:101DB40066BD0223C7F83431D7F8343193FAA3F35C
:101DC400C7F83031D7F83031B3FA83F3DBB23F2BA5
:101DD40002D82F4B1B6813E00223C7F82C31D7F825
:101DE4002C3193FAA3F3C7F828310223C7F824311E
:101DF400D7F8243193FAA3F3C7F82031244B5B6A54
:101E04000222C7F81C21D7F81C2192FAA2F2C7F8C3
:101E14001821D7F81821B2FA82F2D2B242F0200285
:101E2400D2B202F01F02012101FA02F21340002B88
:101E3400B4D107F50273A3F501731B681B6803F0A3
:101E44000803002B00F0198107F50273A3F5017351
:101E54001B685B69002B00F082800123C7F81431F2
:101E6400D7F8143193FAA3F3C7F81031D7F8103127
:101E7400B3FA83F3DBB21A46064B13449B001A46AB
:101E840001231360FEF7C0FDC7F800020FE000BF96
:101E94000010024020819010FEF7B6FD0246D7F8EC
:101EA4000032D31A022B02D9032300F0E8BC022328
:101EB400C7F80C31D7F80C3193FAA3F207F5027383
:101EC400A3F580731A6007F50273A3F582730222E7
:101ED4001A6007F50273A3F582731B6893FAA3F2E1
:101EE40007F50273A3F584731A6007F50273A3F56B
:101EF400867302221A6007F50273A3F586731B68C2
:101F040093FAA3F207F50273A3F588731A60B04B32
:101F14005A6A07F50273A3F58A730221196007F55B
:101F24000273A3F58A731B6893FAA3F107F502738E
:101F3400A3F58C73196007F50273A3F58C731B6802
:101F4400B3FA83F3DBB243F06003DBB203F01F03A5
:101F5400012101FA03F31340002B9DD08DE007F516
:101F64000273A3F58E7301221A6007F50273A3F5B9
:101F74008E731B6893FAA3F207F50273A3F59073AB
:101F84001A6007F50273A3F590731B68B3FA83F321
:101F9400DBB21A468F4B13449B001A46002313608E
:101FA400FEF732FDC7F800020AE0FEF72DFD0246F7
:101FB400D7F80032D31A022B02D9032300F05FBCF6
:101FC40007F50273A3F5927302221A6007F50273F0
:101FD400A3F592731B6893FAA3F207F50273A3F5B2
:101FE40094731A6007F50273A3F5967302221A60BC
:101FF40007F50273A3F596731B6893FAA3F207F52A
:102004000273A3F598731A6007F50273A3F59A7324
:1020140002221A6007F50273A3F59A731B6893FAF8
:10202400A3F207F50273A3F59C731A60684B5A6A0E
:1020340007F50273A3F59E730221196007F5027375
:10204400A3F59E731B6893FAA3F107F50273A3F536
:10205400A073196007F50273A3F5A0731B68B3FAA4
:1020640083F3DBB243F06003DBB203F01F0301210F
:1020740001FA03F31340002B97D107F50273A3F57C
:1020840001731B681B6803F00403002B00F09C81A0
:10209400002387F807324E4BDB6903F08053002B93
:1020A40016D14B4BDB694A4A43F08053D361484B0A
:1020B400DB6903F0805207F50273A3F5FE731A601F
:1020C40007F50273A3F5FE731B68012387F8073233
:1020D400414B1B6803F48073002B1AD13E4B1B68E1
:1020E4003D4A43F480731360FEF78EFCC7F8000288
:1020F40009E0FEF789FC0246D7F80032D31A642BB4
:1021040001D90323BBE3344B1B6803F48073002B16
:10211400EFD007F50273A3F501731B689B68012BCD
:1021240006D12B4B1B6A2A4A43F00103136235E0A4
:1021340007F50273A3F501731B689B68002B0CD190
:10214400234B1B6A224A23F001031362204B1B6AB0
:102154001F4A23F00403136220E007F50273A3F57A
:1021640001731B689B68052B0CD1194B1B6A184A19
:1021740043F004031362164B1B6A154A43F0010330
:1021840013620BE0124B1B6A114A23F00103136222
:102194000F4B1B6A0E4A23F00403136207F5027304
:1021A400A3F501731B689B68002B00F08580FEF784
:1021B4002BFCC7F8000211E0FEF726FC0246D7F814
:1021C4000032D31A41F28832934207D9032356E3EB
:1021D40000100240208190100070004007F5027347
:1021E400A3F5A27302221A6007F50273A3F5A27382
:1021F4001B6893FAA3F207F50273A3F5A4731A609C
:1022040007F50273A3F5A67302221A6007F5027399
:10221400A3F5A6731B6893FAA3F207F50273A3F55B
:10222400A8731A6007F50273A3F5A8731B68B3FAC1
:1022340083F3DBB223F05F03DBB2002B02D1984BB4
:102244001B6A13E007F50273A3F5AA7302221A604E
:1022540007F50273A3F5AA731B6893FAA3F207F5B3
:102264000273A3F5AC731A608D4B5B6A07F50272B7
:10227400A2F5AE720221116007F50272A2F5AE72E8
:10228400126892FAA2F107F50272A2F5B072116017
:1022940007F50272A2F5B0721268B2FA82F2D2B2F3
:1022A40042F04002D2B202F01F02012101FA02F20E
:1022B4001340002B80D07DE0FEF7A6FBC7F8000298
:1022C4000BE0FEF7A1FB0246D7F80032D31A41F225
:1022D4008832934201D90323D1E207F50273A3F5AF
:1022E400B27302221A6007F50273A3F5B2731B6876
:1022F40093FAA3F207F50273A3F5B4731A6007F512
:102304000273A3F5B67302221A6007F50273A3F5EC
:10231400B6731B6893FAA3F207F50273A3F5B873B7
:102324001A6007F50273A3F5B8731B68B3FA83F355
:10233400DBB223F05F03DBB2002B02D1584B1B6AE4
:1023440013E007F50273A3F5BA7302221A6007F5C6
:102354000273A3F5BA731B6893FAA3F207F5027329
:10236400A3F5BC731A604E4B5B6A07F50272A2F5C3
:10237400BE720221116007F50272A2F5BE721268E4
:1023840092FAA2F107F50272A2F5C072116007F584
:102394000272A2F5C0721268B2FA82F2D2B242F0AC
:1023A4004002D2B202F01F02012101FA02F21340EC
:1023B400002B86D197F80732012B05D1384BDB6906
:1023C400374A23F08053D36107F50273A3F50173F1
:1023D4001B689B69002B00F05182314B5B6803F052
:1023E4000C03082B00F00F8207F50273A3F50173A9
:1023F4001B689B69022B40F0658107F50273A3F506
:10240400C2734FF080721A6007F50273A3F5C273AA
:102414001B6893FAA3F207F50273A3F5C4731A6059
:1024240007F50273A3F5C4731B68B3FA83F3DBB235
:1024340003F1845303F584139B001A4600231360AD
:10244400FEF7E2FAC7F8000209E0FEF7DDFA0246F9
:10245400D7F80032D31A022B01D903230FE207F570
:102464000273A3F5C6734FF000721A6007F5027386
:10247400A3F5C6731B6893FAA3F207F50273A3F5D9
:10248400C8731A6007F50273A3F5C8731B68B3FA1F
:1024940083F3DBB23F2B05D8014B1B682AE000BF56
:1024A4000010024007F50273A3F5CA734FF00072DF
:1024B4001A6007F50273A3F5CA731B6893FAA3F2B3
:1024C40007F50273A3F5CC731A6007F50273A3F53D
:1024D400CE734FF000721A6007F50273A3F5CE7342
:1024E4001B6893FAA3F207F50273A3F5D0731A607D
:1024F400CA4B5B6A07F50272A2F5D2724FF0007103
:10250400116007F50272A2F5D272126892FAA2F172
:1025140007F50272A2F5D472116007F50272A2F5F2
:10252400D4721268B2FA82F2D2B242F02002D2B26B
:1025340002F01F02012101FA02F21340002B84D1A0
:10254400B64BDB6A23F00F0207F50273A3F50173A0
:102554001B685B6AB1491343CB62B04B5B6823F4DD
:10256400761207F50273A3F501731B68196A07F560
:102574000273A3F501731B68DB690B43A74913437B
:102584004B6007F50273A3F5D6734FF080721A609F
:1025940007F50273A3F5D6731B6893FAA3F207F544
:1025A4000273A3F5D8731A6007F50273A3F5D87301
:1025B4001B68B3FA83F3DBB203F1845303F584138A
:1025C4009B001A4601231360FEF71EFAC7F80002A7
:1025D40009E0FEF719FA0246D7F80032D31A022BA3
:1025E40001D903234BE107F50273A3F5DA734FF026
:1025F40000721A6007F50273A3F5DA731B6893FA85
:10260400A3F207F50273A3F5DC731A6007F50273EE
:10261400A3F5DC731B68B3FA83F3DBB23F2B02D858
:102624007E4B1B6827E007F50273A3F5DE734FF0BA
:1026340000721A6007F50273A3F5DE731B6893FA40
:10264400A3F207F50273A3F5E0731A6007F50273AA
:10265400A3F5E2734FF000721A6007F50273A3F555
:10266400E2731B6893FAA3F207F50273A3F5E4730C
:102674001A606A4B5B6A07F50272A2F5E6724FF0C4
:102684000071116007F50272A2F5E672126892FAFF
:10269400A2F107F50272A2F5E872116007F5027261
:1026A400A2F5E8721268B2FA82F2D2B242F02002C3
:1026B400D2B202F01F02012101FA02F21340002BF0
:1026C40087D0DBE007F50273A3F5EA734FF080725D
:1026D4001A6007F50273A3F5EA731B6893FAA3F271
:1026E40007F50273A3F5EC731A6007F50273A3F5FB
:1026F400EC731B68B3FA83F3DBB203F1845303F581
:1027040084139B001A4600231360FEF77DF9C7F873
:10271400000209E0FEF778F90246D7F80032D31A2E
:10272400022B01D90323AAE007F50273A3F5EE7384
:102734004FF000721A6007F50273A3F5EE731B687D
:1027440093FAA3F207F50273A3F5F0731A6007F581
:102754000273A3F5F0731B68B3FA83F3DBB23F2B68
:1027640002D82E4B1B6827E007F50273A3F5F2731A
:102774004FF000721A6007F50273A3F5F2731B6839
:1027840093FAA3F207F50273A3F5F4731A6007F53D
:102794000273A3F5F6734FF000721A6007F5027323
:1027A400A3F5F6731B6893FAA3F207F50273A3F576
:1027B400F8731A60194B5B6A07F50272A2F5FA7294
:1027C4004FF00071116007F50272A2F5FA721268F7
:1027D40092FAA2F107F50272A2F5FC72116007F5F4
:1027E4000272A2F5FC721268B2FA82F2D2B242F01C
:1027F4002002D2B202F01F02012101FA02F21340B8
:10280400002B87D13AE007F50273A3F501731B6827
:102814009B69012B04D1012331E000BF0010024069
:10282400194B5B68C7F8FC31174BDB6AC7F8F83102
:10283400D7F8FC3103F4C03207F50273A3F5017332
:102844001B68DB699A4217D1D7F8FC3103F4701284
:1028540007F50273A3F501731B681B6A9A420BD137
:10286400D7F8F83103F00F0207F50273A3F50173EB
:102874001B685B6A9A4201D0012300E000231846DA
:1028840007F50277BD4680BD0010024080B59EB0BA
:1028940000AF7860396000237B677B68002B01D12F
:1028A400012354E1894B1B6803F007033A689A42F9
:1028B40010D9864B1B6823F0070284493B681343F5
:1028C4000B60824B1B6803F007033A689A4201D0FD
:1028D40001233CE17B681B6803F00203002B08D052
:1028E4007B4B5B6823F0F0027B689B687849134359
:1028F4004B607B681B6803F00103002B00F0CD8064
:102904007B685B68012B37D14FF40033FB66FB6EA9
:1029140093FAA3F33B673B6FB3FA83F3DBB23F2B2A
:1029240002D86B4B1B680FE04FF40033BB66BB6EE1
:1029340093FAA3F37B664FF400333B663B6E93FA42
:10294400A3F3FB65624B5B6A4FF40032BA65BA6D60
:1029540092FAA2F27A657A6DB2FA82F2D2B242F0B7
:102964002002D2B202F01F02012101FA02F2134046
:10297400002B71D10123EAE07B685B68022B37D11D
:102984004FF000733B653B6D93FAA3F3FB64FB6C60
:10299400B3FA83F3DBB23F2B02D84D4B1B680FE035
:1029A4004FF00073BB64BB6C93FAA3F37B644FF0EA
:1029B40000733B643B6C93FAA3F3FB63444B5B6A85
:1029C4004FF00072BA63BA6B92FAA2F27A637A6B2E
:1029D400B2FA82F2D2B242F02002D2B202F01F0264
:1029E400012101FA02F21340002B35D10123AEE09C
:1029F40002233B633B6B93FAA3F3FB62FB6AB3FAD8
:102A040083F3DBB23F2B02D8314B1B680DE002236A
:102A1400BB62BB6A93FAA3F37B6202233B623B6A09
:102A240093FAA3F3FB612A4B5B6A0222BA61BA6987
:102A340092FAA2F27A617A69B2FA82F2D2B242F0DE
:102A44002002D2B202F01F02012101FA02F2134065
:102A5400002B01D101237AE01D4B5B6823F00302B4
:102A64007B685B681A4913434B60FDF7CDFF7867B9
:102A74000AE0FDF7C9FF02467B6FD31A41F28832A0
:102A8400934201D9032362E0114B5B6803F00C020B
:102A94007B685B689B009A42EBD10C4B1B6803F08C
:102AA40007033A689A4215D2084B1B6823F00702C1
:102AB40006493B6813430B60044B1B6803F0070390
:102AC4003A689A4206D0012341E000BF0020024048
:102AD400001002407B681B6803F00403002B08D03D
:102AE4001D4B5B6823F4E0627B68DB681A4913437F
:102AF4004B607B681B6803F00803002B09D0164B5E
:102B04005B6823F460527B681B69DB001249134342
:102B14004B6000F029F801460F4B5B6803F0F003AB
:102B2400F0223A613A6992FAA2F2FA60FA68B2FAC9
:102B340082F2D2B2D340094AD35C21FA03F3084AA1
:102B44001360084B1B681846FDF71AFF002318464C
:102B54007837BD4680BD00BF00100240F039000840
:102B6400000000200400002080B487B000AF0023E0
:102B7400FB600023BB6000237B6100237B60002398
:102B84003B611F4B5B68FB60FB6803F00C03042B89
:102B940002D0082B03D029E01A4B3B6129E0FB68E3
:102BA4009B0C03F00F03184AD35C7B60144BDB6A65
:102BB40003F00F03154AD35CBB60FB6803F4803356
:102BC400002B08D00F4ABB68B2FBF3F27B6802FB10
:102BD40003F37B6107E00B4ABB68B2FBF3F27B684B
:102BE40002FB03F37B617B693B6102E0054B3B61C4
:102BF40000BF3B6918461C37BD465DF8047B70472F
:102C04000010024000127A00083A0008183A00083E
:102C140080B400AF034B1B681846BD465DF8047BC7
:102C2400704700BF0000002080B582B000AFFFF7FE
:102C3400EFFF01460B4B5B6803F4E0634FF4E06283
:102C44007A607A6892FAA2F23A603A68B2FA82F248
:102C5400D2B2D340044AD35C21FA03F318460837AE
:102C6400BD4680BD00100240003A000880B582B025
:102C740000AFFFF7CDFF01460B4B5B6803F46053D5
:102C84004FF460527A607A6892FAA2F23A603A6833
:102C9400B2FA82F2D2B2D340044AD35C21FA03F3EB
:102CA40018460837BD4680BD00100240003A0008AF
:102CB40080B592B000AF786000233B640023FB63CF
:102CC400002387F847307B681B6803F48033002BAC
:102CD40000F0D2804D4BDB6903F08053002B0ED102
:102CE4004A4BDB69494A43F08053D361474BDB6964
:102CF40003F08053BB60BB68012387F84730444B23
:102D04001B6803F48073002B18D1414B1B68404AA5
:102D140043F480731360FDF777FE386408E0FDF731
:102D240073FE02463B6CD31A642B01D90323D4E10E
:102D3400374B1B6803F48073002BF0D0334B1B6AB2
:102D440003F44073FB63FB6B002B00F082807B6811
:102D54005B6803F44073FA6B9A427AD02B4B1B6A7C
:102D640023F44073FB634FF480333B633B6B93FA70
:102D7400A3F3FB62FB6AB3FA83F3DBB21A46254B77
:102D840013449B001A46012313604FF48033BB6342
:102D9400BB6B93FAA3F37B637B6BB3FA83F3DBB272
:102DA4001A461C4B13449B001A4600231360174A0F
:102DB400FB6B1362FB6B03F00103002B49D0FDF79F
:102DC40023FE38640AE0FDF71FFE02463B6CD31A6B
:102DD40041F28832934201D903237EE10223BB628C
:102DE400BB6A93FAA3F37B6202233B623B6A93FAC6
:102DF400A3F3FB61FB69B3FA83F3DBB223F05F0354
:102E0400DBB2002B08D1014B1B6A0DE0001002401D
:102E140000700040008190100223BB61BB6993FAEB
:102E2400A3F37B619A4B5B6A02223A613A6992FA94
:102E3400A2F2FA60FA68B2FA82F2D2B242F0400226
:102E4400D2B202F01F02012101FA02F21340002B58
:102E5400B9D08F4B1B6A23F440727B685B688C4942
:102E640013430B6297F84730012B05D1884BDB697C
:102E7400874A23F08053D3617B681B6803F0010306
:102E8400002B08D0824B1B6B23F003027B689B68EA
:102E94007F4913430B637B681B6803F00203002B19
:102EA40008D07B4B1B6B23F440327B68DB6878498A
:102EB40013430B637B681B6803F00403002B08D0E7
:102EC400734B1B6B23F440227B681B6970491343CB
:102ED4000B637B681B6803F02003002B08D06C4B4A
:102EE4001B6B23F010027B68DB69694913430B6396
:102EF4007B681B6803F40033002B08D0644B5B68C9
:102F040023F480027B685B6D614913434B607B68EB
:102F14001B6803F04003002B08D05D4B1B6B23F0B0
:102F240020027B681B6A5A4913430B637B681B6846
:102F340003F48023002B08D0554B1B6B23F0400275
:102F44007B685B6A524913430B637B681B6803F01D
:102F54000803002B08D04E4B1B6B23F440127B68F4
:102F64005B694B4913430B637B681B6803F01003D5
:102F7400002B08D0464B1B6B23F440027B689B69F3
:102F8400434913430B637B681B6803F40073002BF2
:102F940008D03F4B5B6823F400027B681B6B3C4901
:102FA40013434B607B681B6803F08003002B08D03D
:102FB400374BDB6A23F4F8727B689B6A344913430A
:102FC400CB627B681B6803F48073002B08D0304B02
:102FD400DB6A23F478527B68DB6A2D491343CB62A6
:102FE4007B681B6803F48053002B08D0284B1B6BB1
:102FF40023F480727B685B6B254913430B637B6806
:103004001B6803F40053002B08D0214B1B6B23F4E3
:1030140000727B681B6C1E4913430B637B681B683F
:1030240003F48013002B08D0194B1B6B23F0807220
:103034007B689B6B164913430B637B681B6803F423
:103044000013002B08D0124B1B6B23F000727B681B
:10305400DB6B0F4913430B637B681B6803F480032A
:10306400002B08D00A4B1B6B23F480627B685B6CDB
:10307400074913430B637B681B6803F40003002BAD
:103084000CD0034B1B6B23F400627B6802E000BF8F
:10309400001002409B6C134913430B637B681B684D
:1030A40003F08073002B08D00E4B1B6B23F40052EB
:1030B4007B68DB6C0B4913430B637B681B6803F071
:1030C4000073002B08D0074B1B6B23F400427B6872
:1030D4001B6D044913430B63002318464837BD4650
:1030E40080BD00BF0010024080B582B000AF7860A0
:1030F4007B68002B01D1012340E07B68DB6F002B50
:1031040006D17B68002283F878207868FDF762FB9B
:103114007B682422DA677B681B681A687B681B68F3
:1031240022F001021A607B685B6A002B02D0786887
:1031340000F0FCF9786800F025F80346012B01D172
:1031440001231BE07B681B685A687B681B6822F4B8
:1031540090425A607B681B689A687B681B6822F0FF
:103164002A029A607B681B681A687B681B6842F0B5
:1031740001021A60786800F07BFA034618460837A3
:10318400BD4680BD80B588B000AF78600023BB77B2
:103194007B689A687B681B691A437B685B691A437E
:1031A4007B68DB6913437B617B681B681A68924BFD
:1031B40013407A68126879690B4313607B681B6853
:1031C4005B6823F440517B68DA687B681B680A43B8
:1031D4005A607B689B697B617B681B6A7A691343CD
:1031E4007B617B681B689B6823F430617B681B6888
:1031F4007A690A439A607B681B68804A934220D1AB
:103204007F4B1B6B03F00303032B17D801A252F867
:1032140023F000BF29320008353200083B32000891
:103224002F3200080123FB77B5E00223FB77B2E0DD
:103234000423FB77AFE00823FB77ACE01023FB7794
:10324400A9E07B681B686F4A934224D16C4B1B6BCB
:1032540003F44033B3F5403F11D0B3F5403F17D8E2
:10326400B3F5003F11D0B3F5003F11D8002B03D0C4
:10327400B3F5803F06D00BE00023FB778BE00223FD
:10328400FB7788E00423FB7785E00823FB7782E063
:103294001023FB777FE07B681B685B4A934224D151
:1032A400574B1B6B03F44023B3F5402F11D0B3F5F8
:1032B400402F17D8B3F5002F11D0B3F5002F11D834
:1032C400002B03D0B3F5802F06D00BE00023FB774F
:1032D40061E00223FB775EE00423FB775BE00823D5
:1032E400FB7758E01023FB7755E07B681B68474A5F
:1032F400934224D1424B1B6B03F44013B3F5401F9C
:1033040011D0B3F5401F17D8B3F5001F11D0B3F592
:10331400001F11D8002B03D0B3F5801F06D00BE09B
:103324000023FB7737E00223FB7734E00423FB77A9
:1033340031E00823FB772EE01023FB772BE07B683A
:103344001B68334A934224D12D4B1B6B03F4400377
:10335400B3F5400F11D0B3F5400F17D8B3F5000FF4
:1033640011D0B3F5000F11D8002B03D0B3F5800FA3
:1033740006D00BE00023FB770DE00223FB770AE085
:103384000423FB7707E00823FB7704E01023FB7793
:1033940001E01023FB777B68DB69B3F5004F6BD149
:1033A400FB7F082B38D801A252F823F0D53300084C
:1033B400DD330008E53300081D340008EB33000852
:1033C4001D3400081D3400081D340008F3330008C0
:1033D400FFF72AFCB86124E0FFF748FCB86120E05D
:1033E4000C4BBB611DE0FFF7BFFBB86119E04FF464
:1033F4000043BB6115E000BFF369FFEF00380140F3
:10340400001002400044004000480040004C0040CE
:103414000050004000127A000023BB610123BB77F7
:1034240000BFBB69002B73D0BB695A007B685B6823
:103434005B081A447B685B68B2FBF3F33B613B694E
:103444000F2B16D93B69B3F5803F12D23B699BB26F
:1034540023F00F03FB813B695B089BB203F0070376
:103464009AB2FB891343FB817B681B68FA89DA6093
:103474004EE00123BB774BE0FB7F082B27D801A24A
:1034840052F823F0AD340008B5340008BD34000808
:10349400D3340008C3340008D3340008D3340008FC
:1034A400D3340008CB340008FFF7BEFBB86113E047
:1034B400FFF7DCFBB8610FE01B4BBB610CE0FFF7CF
:1034C40053FBB86108E04FF40043BB6104E0002300
:1034D400BB610123BB7700BFBB69002B18D07B689D
:1034E4005B685A08BB691A447B685B68B2FBF3F3F8
:1034F4003B613B690F2B09D93B69B3F5803F05D28A
:103504003B699AB27B681B68DA6001E00123BB77F0
:103514007B6800229A667B680022DA66BB7F1846C5
:103524002037BD4680BD00BF00127A0080B483B04E
:1035340000AF78607B685B6A03F00803002B0AD055
:103544007B681B685B6823F400417B685A6B7B686B
:103554001B680A435A607B685B6A03F00103002B13
:103564000AD07B681B685B6823F400317B689A6A25
:103574007B681B680A435A607B685B6A03F002033A
:10358400002B0AD07B681B685B6823F480317B685E
:10359400DA6A7B681B680A435A607B685B6A03F0DB
:1035A4000403002B0AD07B681B685B6823F480212A
:1035B4007B681A6B7B681B680A435A607B685B6A8A
:1035C40003F01003002B0AD07B681B689B6823F46C
:1035D40080517B689A6B7B681B680A439A607B689E
:1035E4005B6A03F02003002B0AD07B681B689B688E
:1035F40023F400517B68DA6B7B681B680A439A608A
:103604007B685B6A03F04003002B1AD07B681B685D
:103614005B6823F480117B681A6C7B681B680A431F
:103624005A607B681B6CB3F5801F0AD17B681B68EA
:103634005B6823F4C0017B685A6C7B681B680A438F
:103644005A607B685B6A03F08003002B0AD07B68B6
:103654001B685B6823F400217B689A6C7B681B6899
:103664000A435A6000BF0C37BD465DF8047B7047BF
:1036740080B598B002AF78607B680022C3F88420DC
:10368400FDF7C2F978657B681B681B6803F00803C3
:10369400082B2ED16FF07E4300937B6D00224FF4F4
:1036A4000011786800F08CF80346002B21D07B6869
:1036B4001B68BB63BB6B53E8003F7B637B6B23F0EE
:1036C40080033B657B681B681A463B6D7B643A64E8
:1036D400396C7A6C41E80023FB63FB6B002BE6D169
:1036E4007B682022DA677B68002283F87820032332
:1036F40062E07B681B681B6803F00403042B49D158
:103704006FF07E4300937B6D00224FF48001786854
:1037140000F056F80346002B3CD07B681B687B62A4
:103724007B6A53E8003F3B623B6A23F49073FB647B
:103734007B681B681A46FB6C3B63FA62F96A3A6B56
:1037440041E80023BB62BB6A002BE6D17B681B689F
:1037540008333B613B6953E8003FFB60FB6823F09F
:103764000103BB647B681B680833BA6CFA61BB61F4
:10377400B969FA6941E800237B617B69002BE5D1D3
:103784007B682022C3F880207B68002283F878209D
:10379400032311E07B682022DA677B682022C3F8C8
:1037A40080207B6800221A667B6800225A667B6848
:1037B400002283F87820002318465837BD4680BD80
:1037C40080B584B000AFF860B9603B601346FB710C
:1037D4004FE0BB69B3F1FF3F4BD0FDF715F902464B
:1037E4003B68D31ABA699A4202D3BB69002B01D150
:1037F40003234EE0FB681B681B6803F00403002BE3
:1038040037D0BB68802B34D0BB68402B31D0FB68E9
:103814001B68DB6903F00803082B10D1FB681B68E5
:1038240008221A62F86800F038F8FB680822C3F826
:103834008420FB68002283F87820012329E0FB68B8
:103844001B68DB6903F40063B3F5006F11D1FB68F7
:103854001B684FF400621A62F86800F01EF8FB68F7
:103864002022C3F88420FB68002283F878200323F5
:103874000FE0FB681B68DA69BB681340BA689A42B8
:103884000CBF01230023DBB21A46FB799A42A0D075
:10389400002318461037BD4680BD80B495B000AFF4
:1038A40078607B681B687B637B6B53E8003F3B63FA
:1038B4003B6B23F49073FB647B681B681A46FB6CB8
:1038C4003B64FA63F96B3A6C41E80023BB63BB6B5E
:1038D400002BE6D17B681B6808333B623B6A53E8E4
:1038E400003FFB61FB6923F00103BB647B681B6839
:1038F4000833BA6CFA62BB62B96AFA6A41E8002317
:103904007B627B6A002BE5D17B681B6E012B18D18F
:103914007B681B68FB60FB6853E8003FBB60BB68C7
:1039240023F010037B647B681B681A467B6CBB61C5
:103934007A617969BA6941E800233B613B69002BEC
:10394400E6D17B682022C3F880207B6800221A66B7
:103954007B6800229A6600BF5437BD465DF8047B3D
:10396400704702440346934200D1704703F8011B99
:10397400F9E7000070B50D4D0D4C641BA410002632
:10398400A64209D10B4D0C4C00F018F8641BA4108E
:103994000026A64205D170BD55F8043B9847013670
:1039A400EEE755F8043B98470136F2E7283A000859
:1039B400283A0008283A00082C3A0008F8B500BF55
:1039C400F8BC08BC9E467047F8B500BFF8BC08BCFC
:0439D4009E46704754
:1039D80048454C4C4F20574F524C44004641535495
:1039E80020476D6248000000000000000000000051
:1039F800010203040607080900000000010203048D
:103A080002030405060708090A0B0C0D0E0F101017
:103A18000102030405060708090A0B0C0D0E0F1016
:043A2800B9010008D8
:043A2C0095010008F8
:0C3A300000127A001000000001000000ED
:0400000508000905E1
:00000001FF
